{
  "_format": "hh-sol-artifact-1",
  "contractName": "PERV",
  "sourceName": "contracts/PERV.sol",
  "abi": [
    {
      "inputs": [],
      "stateMutability": "nonpayable",
      "type": "constructor"
    },
    {
      "inputs": [
        {
          "internalType": "bytes",
          "name": "key",
          "type": "bytes"
        }
      ],
      "name": "_calculateAddressFromPubKey",
      "outputs": [
        {
          "internalType": "address",
          "name": "addr",
          "type": "address"
        }
      ],
      "stateMutability": "pure",
      "type": "function"
    },
    {
      "inputs": [
        {
          "internalType": "bytes",
          "name": "hashed_A_nonce",
          "type": "bytes"
        },
        {
          "internalType": "bytes",
          "name": "B_signed_hashed_A_nonce",
          "type": "bytes"
        },
        {
          "internalType": "bytes",
          "name": "B_pubkey",
          "type": "bytes"
        },
        {
          "internalType": "bytes",
          "name": "hashed_data",
          "type": "bytes"
        }
      ],
      "name": "createQue",
      "outputs": [],
      "stateMutability": "nonpayable",
      "type": "function"
    },
    {
      "inputs": [
        {
          "internalType": "bytes",
          "name": "dataurl",
          "type": "bytes"
        }
      ],
      "name": "getSignatures",
      "outputs": [
        {
          "internalType": "bytes",
          "name": "A_sig",
          "type": "bytes"
        },
        {
          "internalType": "bytes",
          "name": "B_sig",
          "type": "bytes"
        }
      ],
      "stateMutability": "view",
      "type": "function"
    },
    {
      "inputs": [
        {
          "internalType": "bytes",
          "name": "data",
          "type": "bytes"
        }
      ],
      "name": "hashdayo",
      "outputs": [
        {
          "internalType": "bytes32",
          "name": "",
          "type": "bytes32"
        }
      ],
      "stateMutability": "pure",
      "type": "function"
    },
    {
      "inputs": [],
      "name": "owner",
      "outputs": [
        {
          "internalType": "address",
          "name": "",
          "type": "address"
        }
      ],
      "stateMutability": "view",
      "type": "function"
    },
    {
      "inputs": [
        {
          "internalType": "bytes",
          "name": "A_signed_dataurl",
          "type": "bytes"
        },
        {
          "internalType": "bytes",
          "name": "A_pubkey",
          "type": "bytes"
        },
        {
          "internalType": "bytes",
          "name": "A_nonce",
          "type": "bytes"
        }
      ],
      "name": "putFinaility",
      "outputs": [],
      "stateMutability": "nonpayable",
      "type": "function"
    },
    {
      "inputs": [
        {
          "internalType": "bytes",
          "name": "dataurl",
          "type": "bytes"
        },
        {
          "internalType": "bytes",
          "name": "hashed_dataurl",
          "type": "bytes"
        },
        {
          "internalType": "bytes",
          "name": "B_signed_dataurl",
          "type": "bytes"
        },
        {
          "internalType": "bytes",
          "name": "hashed_A_nonce",
          "type": "bytes"
        }
      ],
      "name": "putIntent",
      "outputs": [],
      "stateMutability": "nonpayable",
      "type": "function"
    },
    {
      "inputs": [
        {
          "internalType": "bytes32",
          "name": "hash",
          "type": "bytes32"
        },
        {
          "internalType": "bytes",
          "name": "sig",
          "type": "bytes"
        }
      ],
      "name": "signdayo",
      "outputs": [
        {
          "internalType": "address",
          "name": "",
          "type": "address"
        }
      ],
      "stateMutability": "pure",
      "type": "function"
    }
  ],
  "bytecode": "0x608060405234801561001057600080fd5b5033600960006101000a81548173ffffffffffffffffffffffffffffffffffffffff021916908373ffffffffffffffffffffffffffffffffffffffff160217905550611ed1806100616000396000f3fe608060405234801561001057600080fd5b50600436106100885760003560e01c80636b45b4e31161005b5780636b45b4e3146101255780638da5cb5b14610156578063b0d9e27114610174578063b5d1daa0146101a457610088565b806313b9b8491461008d5780631e650b86146100bd5780635f8e15ee146100d957806367599888146100f5575b600080fd5b6100a760048036038101906100a291906111c8565b6101c0565b6040516100b49190611265565b60405180910390f35b6100d760048036038101906100d29190611280565b6101d4565b005b6100f360048036038101906100ee9190611280565b610337565b005b61010f600480360381019061010a9190611357565b610702565b60405161011c91906113af565b60405180910390f35b61013f600480360381019061013a9190611357565b610713565b60405161014d929190611452565b60405180910390f35b61015e610a25565b60405161016b9190611265565b60405180910390f35b61018e60048036038101906101899190611357565b610a4f565b60405161019b9190611265565b60405180910390f35b6101be60048036038101906101b99190611489565b610ac2565b005b60006101cc8383610d56565b905092915050565b6000846101e090611562565b905060006101ee8286610d56565b905060006101fb85610a4f565b90508073ffffffffffffffffffffffffffffffffffffffff168273ffffffffffffffffffffffffffffffffffffffff161461026b576040517f08c379a000000000000000000000000000000000000000000000000000000000815260040161026290611672565b60405180910390fd5b8460018860405161027c91906116ce565b9081526020016040518091039020908051906020019061029d929190610f95565b50806007866040516102af91906116ce565b908152602001604051809103902060006101000a81548173ffffffffffffffffffffffffffffffffffffffff021916908373ffffffffffffffffffffffffffffffffffffffff1602179055508360028860405161030c91906116ce565b9081526020016040518091039020908051906020019061032d929190610f95565b5050505050505050565b83805190602001208361034990611562565b14610389576040517f08c379a00000000000000000000000000000000000000000000000000000000081526004016103809061177d565b60405180910390fd5b60008361039590611562565b905060006103a38285610d56565b905060006001846040516103b791906116ce565b908152602001604051809103902080546103d0906117cc565b80601f01602080910402602001604051908101604052809291908181526020018280546103fc906117cc565b80156104495780601f1061041e57610100808354040283529160200191610449565b820191906000526020600020905b81548152906001019060200180831161042c57829003601f168201915b50505050509050600060078260405161046291906116ce565b908152602001604051809103902060009054906101000a900473ffffffffffffffffffffffffffffffffffffffff1690508073ffffffffffffffffffffffffffffffffffffffff168373ffffffffffffffffffffffffffffffffffffffff1614610501576040517f08c379a00000000000000000000000000000000000000000000000000000000081526004016104f890611896565b60405180910390fd5b600060028660405161051391906116ce565b9081526020016040518091039020805461052c906117cc565b80601f0160208091040260200160405190810160405280929190818152602001828054610558906117cc565b80156105a55780601f1061057a576101008083540402835291602001916105a5565b820191906000526020600020905b81548152906001019060200180831161058857829003601f168201915b5050505050905060008151905060008a519050600082826105c691906118ef565b905060006105d58d8386610e34565b90508480519060200120818051906020012014610627576040517f08c379a000000000000000000000000000000000000000000000000000000000815260040161061e90611995565b60405180910390fd5b8a60048b60405161063891906116ce565b90815260200160405180910390209080519060200190610659929190610f95565b508c60058b60405161066b91906116ce565b9081526020016040518091039020908051906020019061068c929190610f95565b508b60068b60405161069e91906116ce565b908152602001604051809103902090805190602001906106bf929190610f95565b508960088e6040516106d191906116ce565b908152602001604051809103902090805190602001906106f2929190610f95565b5050505050505050505050505050565b600081805190602001209050919050565b606080600060088460405161072891906116ce565b90815260200160405180910390208054610741906117cc565b80601f016020809104026020016040519081016040528092919081815260200182805461076d906117cc565b80156107ba5780601f1061078f576101008083540402835291602001916107ba565b820191906000526020600020905b81548152906001019060200180831161079d57829003601f168201915b505050505090506003816040516107d191906116ce565b908152602001604051809103902080546107ea906117cc565b80601f0160208091040260200160405190810160405280929190818152602001828054610816906117cc565b80156108635780601f1061083857610100808354040283529160200191610863565b820191906000526020600020905b81548152906001019060200180831161084657829003601f168201915b5050505050925060048160405161087a91906116ce565b90815260200160405180910390208054610893906117cc565b80601f01602080910402602001604051908101604052809291908181526020018280546108bf906117cc565b801561090c5780601f106108e15761010080835404028352916020019161090c565b820191906000526020600020905b8154815290600101906020018083116108ef57829003601f168201915b505050505091506040518060400160405280600281526020017f30780000000000000000000000000000000000000000000000000000000000008152508051906020012083805190602001201415610999576040517f08c379a000000000000000000000000000000000000000000000000000000000815260040161099090611a27565b60405180910390fd5b6040518060400160405280600281526020017f30780000000000000000000000000000000000000000000000000000000000008152508051906020012082805190602001201415610a1f576040517f08c379a0000000000000000000000000000000000000000000000000000000008152600401610a1690611ab9565b60405180910390fd5b50915091565b6000600960009054906101000a900473ffffffffffffffffffffffffffffffffffffffff16905090565b600080610a6a836001808651610a6591906118ef565b610e34565b905060008180519060200120905080604051602001610a899190611afa565b6040516020818303038152906040529150610ab282600c808551610aad91906118ef565b610e34565b9150601482015192505050919050565b600081805190602001209050600081604051602001610ae19190611afa565b60405160208183030381529060405290506040518060400160405280600281526020017f307800000000000000000000000000000000000000000000000000000000000081525080519060200120600482604051610b3f91906116ce565b9081526020016040518091039020604051610b5a9190611ba9565b60405180910390201415610ba3576040517f08c379a0000000000000000000000000000000000000000000000000000000008152600401610b9a90611c0c565b60405180910390fd5b6000600682604051610bb591906116ce565b90815260200160405180910390208054610bce906117cc565b80601f0160208091040260200160405190810160405280929190818152602001828054610bfa906117cc565b8015610c475780601f10610c1c57610100808354040283529160200191610c47565b820191906000526020600020905b815481529060010190602001808311610c2a57829003601f168201915b50505050509050600081610c5a90611562565b90506000610c688289610d56565b90506000610c7588610a4f565b90508073ffffffffffffffffffffffffffffffffffffffff168273ffffffffffffffffffffffffffffffffffffffff1614610ce5576040517f08c379a0000000000000000000000000000000000000000000000000000000008152600401610cdc90611cc4565b60405180910390fd5b87600086604051610cf691906116ce565b90815260200160405180910390209080519060200190610d17929190610f95565b5088600386604051610d2991906116ce565b90815260200160405180910390209080519060200190610d4a929190610f95565b50505050505050505050565b600080600080610d6585610f52565b80935081945082955050505060006040518060400160405280601c81526020017f19457468657265756d205369676e6564204d6573736167653a0a333200000000815250905060008188604051602001610dc0929190611ce4565b60405160208183030381529060405280519060200120905060018186868660405160008152602001604052604051610dfb9493929190611d28565b6020604051602081039080840390855afa158015610e1d573d6000803e3d6000fd5b505050602060405103519550505050505092915050565b606081601f83610e449190611d6d565b1015610e85576040517f08c379a0000000000000000000000000000000000000000000000000000000008152600401610e7c90611e0f565b60405180910390fd5b8183610e919190611d6d565b84511015610ed4576040517f08c379a0000000000000000000000000000000000000000000000000000000008152600401610ecb90611e7b565b60405180910390fd5b6060821560008114610ef55760405191506000825260208201604052610f46565b6040519150601f8416801560200281840101858101878315602002848b0101015b81831015610f335780518352602083019250602081019050610f16565b50868552601f19601f8301166040525050505b50809150509392505050565b60008060006041845114610f6557600080fd5b60008060006020870151925060408701519150606087015160001a90508083839550955095505050509193909250565b828054610fa1906117cc565b90600052602060002090601f016020900481019282610fc3576000855561100a565b82601f10610fdc57805160ff191683800117855561100a565b8280016001018555821561100a579182015b82811115611009578251825591602001919060010190610fee565b5b509050611017919061101b565b5090565b5b8082111561103457600081600090555060010161101c565b5090565b6000604051905090565b600080fd5b600080fd5b6000819050919050565b61105f8161104c565b811461106a57600080fd5b50565b60008135905061107c81611056565b92915050565b600080fd5b600080fd5b6000601f19601f8301169050919050565b7f4e487b7100000000000000000000000000000000000000000000000000000000600052604160045260246000fd5b6110d58261108c565b810181811067ffffffffffffffff821117156110f4576110f361109d565b5b80604052505050565b6000611107611038565b905061111382826110cc565b919050565b600067ffffffffffffffff8211156111335761113261109d565b5b61113c8261108c565b9050602081019050919050565b82818337600083830152505050565b600061116b61116684611118565b6110fd565b90508281526020810184848401111561118757611186611087565b5b611192848285611149565b509392505050565b600082601f8301126111af576111ae611082565b5b81356111bf848260208601611158565b91505092915050565b600080604083850312156111df576111de611042565b5b60006111ed8582860161106d565b925050602083013567ffffffffffffffff81111561120e5761120d611047565b5b61121a8582860161119a565b9150509250929050565b600073ffffffffffffffffffffffffffffffffffffffff82169050919050565b600061124f82611224565b9050919050565b61125f81611244565b82525050565b600060208201905061127a6000830184611256565b92915050565b6000806000806080858703121561129a57611299611042565b5b600085013567ffffffffffffffff8111156112b8576112b7611047565b5b6112c48782880161119a565b945050602085013567ffffffffffffffff8111156112e5576112e4611047565b5b6112f18782880161119a565b935050604085013567ffffffffffffffff81111561131257611311611047565b5b61131e8782880161119a565b925050606085013567ffffffffffffffff81111561133f5761133e611047565b5b61134b8782880161119a565b91505092959194509250565b60006020828403121561136d5761136c611042565b5b600082013567ffffffffffffffff81111561138b5761138a611047565b5b6113978482850161119a565b91505092915050565b6113a98161104c565b82525050565b60006020820190506113c460008301846113a0565b92915050565b600081519050919050565b600082825260208201905092915050565b60005b838110156114045780820151818401526020810190506113e9565b83811115611413576000848401525b50505050565b6000611424826113ca565b61142e81856113d5565b935061143e8185602086016113e6565b6114478161108c565b840191505092915050565b6000604082019050818103600083015261146c8185611419565b905081810360208301526114808184611419565b90509392505050565b6000806000606084860312156114a2576114a1611042565b5b600084013567ffffffffffffffff8111156114c0576114bf611047565b5b6114cc8682870161119a565b935050602084013567ffffffffffffffff8111156114ed576114ec611047565b5b6114f98682870161119a565b925050604084013567ffffffffffffffff81111561151a57611519611047565b5b6115268682870161119a565b9150509250925092565b6000819050602082019050919050565b600061154c825161104c565b80915050919050565b600082821b905092915050565b600061156d826113ca565b8261157784611530565b905061158281611540565b925060208210156115c2576115bd7fffffffffffffffffffffffffffffffffffffffffffffffffffffffffffffffff83602003600802611555565b831692505b5050919050565b600082825260208201905092915050565b7f504552562028637265617465517565293a206e6f74206d61746368206265747760008201527f65656e20746865207369676e657220616e642074686520706c6174666f726d6560208201527f7200000000000000000000000000000000000000000000000000000000000000604082015250565b600061165c6041836115c9565b9150611667826115da565b606082019050919050565b6000602082019050818103600083015261168b8161164f565b9050919050565b600081905092915050565b60006116a8826113ca565b6116b28185611692565b93506116c28185602086016113e6565b80840191505092915050565b60006116da828461169d565b915081905092915050565b7f504552562028707574496e74656e74293a206e6f74206d61746368206265747760008201527f65656e20746865206861736865645f6461746175726c20746f2064617461757260208201527f6c00000000000000000000000000000000000000000000000000000000000000604082015250565b60006117676041836115c9565b9150611772826116e5565b606082019050919050565b600060208201905081810360008301526117968161175a565b9050919050565b7f4e487b7100000000000000000000000000000000000000000000000000000000600052602260045260246000fd5b600060028204905060018216806117e457607f821691505b602082108114156117f8576117f761179d565b5b50919050565b7f504552562028707574496e74656e74293a206e6f74206d61746368206265747760008201527f65656e20746865207369676e657220616e642074686520706c6174666f726d6560208201527f7200000000000000000000000000000000000000000000000000000000000000604082015250565b60006118806041836115c9565b915061188b826117fe565b606082019050919050565b600060208201905081810360008301526118af81611873565b9050919050565b6000819050919050565b7f4e487b7100000000000000000000000000000000000000000000000000000000600052601160045260246000fd5b60006118fa826118b6565b9150611905836118b6565b925082821015611918576119176118c0565b5b828203905092915050565b7f504552562028707574496e74656e74293a206e6f74206d61746368207468652060008201527f6461746120686173680000000000000000000000000000000000000000000000602082015250565b600061197f6029836115c9565b915061198a82611923565b604082019050919050565b600060208201905081810360008301526119ae81611972565b9050919050565b7f5045525620286765745369676e617475726573293a206e6f7420666f756e642060008201527f415f736967000000000000000000000000000000000000000000000000000000602082015250565b6000611a116025836115c9565b9150611a1c826119b5565b604082019050919050565b60006020820190508181036000830152611a4081611a04565b9050919050565b7f5045525620286765745369676e617475726573293a206e6f7420666f756e642060008201527f425f736967000000000000000000000000000000000000000000000000000000602082015250565b6000611aa36025836115c9565b9150611aae82611a47565b604082019050919050565b60006020820190508181036000830152611ad281611a96565b9050919050565b6000819050919050565b611af4611aef8261104c565b611ad9565b82525050565b6000611b068284611ae3565b60208201915081905092915050565b60008190508160005260206000209050919050565b60008154611b37816117cc565b611b418186611692565b94506001821660008114611b5c5760018114611b6d57611ba0565b60ff19831686528186019350611ba0565b611b7685611b15565b60005b83811015611b9857815481890152600182019150602081019050611b79565b838801955050505b50505092915050565b6000611bb58284611b2a565b915081905092915050565b7f504552563a206e6f74206d617463680000000000000000000000000000000000600082015250565b6000611bf6600f836115c9565b9150611c0182611bc0565b602082019050919050565b60006020820190508181036000830152611c2581611be9565b9050919050565b7f50455256202870757446696e61696c697479293a206e6f74206d61746368206260008201527f65747765656e20746865207369676e657220616e64207468652070726f76696460208201527f6572000000000000000000000000000000000000000000000000000000000000604082015250565b6000611cae6042836115c9565b9150611cb982611c2c565b606082019050919050565b60006020820190508181036000830152611cdd81611ca1565b9050919050565b6000611cf0828561169d565b9150611cfc8284611ae3565b6020820191508190509392505050565b600060ff82169050919050565b611d2281611d0c565b82525050565b6000608082019050611d3d60008301876113a0565b611d4a6020830186611d19565b611d5760408301856113a0565b611d6460608301846113a0565b95945050505050565b6000611d78826118b6565b9150611d83836118b6565b9250827fffffffffffffffffffffffffffffffffffffffffffffffffffffffffffffffff03821115611db857611db76118c0565b5b828201905092915050565b7f736c6963655f6f766572666c6f77000000000000000000000000000000000000600082015250565b6000611df9600e836115c9565b9150611e0482611dc3565b602082019050919050565b60006020820190508181036000830152611e2881611dec565b9050919050565b7f736c6963655f6f75744f66426f756e6473000000000000000000000000000000600082015250565b6000611e656011836115c9565b9150611e7082611e2f565b602082019050919050565b60006020820190508181036000830152611e9481611e58565b905091905056fea26469706673582212206463e358a1fbbc131c8e006fed2cc356a9694396e690af3422c7a220b90119be64736f6c63430008090033",
  "linkReferences": {},
  "deployedLinkReferences": {}
}