{
  "_format": "hh-sol-artifact-1",
  "contractName": "PERV",
  "sourceName": "contracts/PERV.sol",
  "abi": [
    {
      "inputs": [],
      "stateMutability": "nonpayable",
      "type": "constructor"
    },
    {
      "inputs": [
        {
          "internalType": "bytes",
          "name": "key",
          "type": "bytes"
        }
      ],
      "name": "_calculateAddressFromPubKey",
      "outputs": [
        {
          "internalType": "address",
          "name": "addr",
          "type": "address"
        }
      ],
      "stateMutability": "pure",
      "type": "function"
    },
    {
      "inputs": [
        {
          "internalType": "bytes32",
          "name": "hash",
          "type": "bytes32"
        },
        {
          "internalType": "bytes",
          "name": "sig",
          "type": "bytes"
        }
      ],
      "name": "checksign",
      "outputs": [
        {
          "internalType": "address",
          "name": "",
          "type": "address"
        }
      ],
      "stateMutability": "pure",
      "type": "function"
    },
    {
      "inputs": [
        {
          "internalType": "bytes",
          "name": "hashed_A_nonce",
          "type": "bytes"
        },
        {
          "internalType": "bytes",
          "name": "B_signed_hashed_A_nonce",
          "type": "bytes"
        },
        {
          "internalType": "bytes",
          "name": "B_pubkey",
          "type": "bytes"
        },
        {
          "internalType": "bytes",
          "name": "hashed_data",
          "type": "bytes"
        }
      ],
      "name": "createQue",
      "outputs": [],
      "stateMutability": "nonpayable",
      "type": "function"
    },
    {
      "inputs": [
        {
          "internalType": "bytes",
          "name": "dataurl",
          "type": "bytes"
        }
      ],
      "name": "getSignatures",
      "outputs": [
        {
          "internalType": "bytes",
          "name": "A_sig",
          "type": "bytes"
        },
        {
          "internalType": "bytes",
          "name": "B_sig",
          "type": "bytes"
        }
      ],
      "stateMutability": "view",
      "type": "function"
    },
    {
      "inputs": [],
      "name": "owner",
      "outputs": [
        {
          "internalType": "address",
          "name": "",
          "type": "address"
        }
      ],
      "stateMutability": "view",
      "type": "function"
    },
    {
      "inputs": [
        {
          "internalType": "bytes",
          "name": "A_signed_dataurl",
          "type": "bytes"
        },
        {
          "internalType": "bytes",
          "name": "A_pubkey",
          "type": "bytes"
        },
        {
          "internalType": "bytes",
          "name": "A_nonce",
          "type": "bytes"
        }
      ],
      "name": "putFinaility",
      "outputs": [],
      "stateMutability": "nonpayable",
      "type": "function"
    },
    {
      "inputs": [
        {
          "internalType": "bytes",
          "name": "dataurl",
          "type": "bytes"
        },
        {
          "internalType": "bytes",
          "name": "hashed_dataurl",
          "type": "bytes"
        },
        {
          "internalType": "bytes",
          "name": "B_signed_dataurl",
          "type": "bytes"
        },
        {
          "internalType": "bytes",
          "name": "hashed_A_nonce",
          "type": "bytes"
        }
      ],
      "name": "putIntent",
      "outputs": [],
      "stateMutability": "nonpayable",
      "type": "function"
    }
  ],
  "bytecode": "0x608060405234801561001057600080fd5b5033600a60006101000a81548173ffffffffffffffffffffffffffffffffffffffff021916908373ffffffffffffffffffffffffffffffffffffffff1602179055506120f7806100616000396000f3fe608060405234801561001057600080fd5b506004361061007d5760003560e01c8063839f7b2a1161005b578063839f7b2a146100eb5780638da5cb5b1461011b578063b0d9e27114610139578063b5d1daa0146101695761007d565b80631e650b86146100825780635f8e15ee1461009e5780636b45b4e3146100ba575b600080fd5b61009c60048036038101906100979190611341565b610185565b005b6100b860048036038101906100b39190611341565b610391565b005b6100d460048036038101906100cf9190611418565b610805565b6040516100e29291906114e9565b60405180910390f35b61010560048036038101906101009190611556565b610b17565b60405161011291906115f3565b60405180910390f35b610123610b2b565b60405161013091906115f3565b60405180910390f35b610153600480360381019061014e9190611418565b610b55565b60405161016091906115f3565b60405180910390f35b610183600480360381019061017e919061160e565b610bc8565b005b600060098560405161019791906116f1565b908152602001604051809103902060009054906101000a900460ff1660ff16146101f6576040517f08c379a00000000000000000000000000000000000000000000000000000000081526004016101ed9061178b565b60405180910390fd5b600084610202906117dd565b905060006102108286610f05565b9050600061021d85610b55565b90508073ffffffffffffffffffffffffffffffffffffffff168273ffffffffffffffffffffffffffffffffffffffff161461028d576040517f08c379a0000000000000000000000000000000000000000000000000000000008152600401610284906118dc565b60405180910390fd5b8460018860405161029e91906116f1565b908152602001604051809103902090805190602001906102bf929190611144565b50806007866040516102d191906116f1565b908152602001604051809103902060006101000a81548173ffffffffffffffffffffffffffffffffffffffff021916908373ffffffffffffffffffffffffffffffffffffffff1602179055508360028860405161032e91906116f1565b9081526020016040518091039020908051906020019061034f929190611144565b50600160098860405161036291906116f1565b908152602001604051809103902060006101000a81548160ff021916908360ff16021790555050505050505050565b60016009826040516103a391906116f1565b908152602001604051809103902060009054906101000a900460ff1660ff1614610402576040517f08c379a00000000000000000000000000000000000000000000000000000000081526004016103f99061178b565b60405180910390fd5b838051906020012083610414906117dd565b14610454576040517f08c379a000000000000000000000000000000000000000000000000000000000815260040161044b90611994565b60405180910390fd5b600083610460906117dd565b9050600061046e8285610f05565b9050600060018460405161048291906116f1565b9081526020016040518091039020805461049b906119e3565b80601f01602080910402602001604051908101604052809291908181526020018280546104c7906119e3565b80156105145780601f106104e957610100808354040283529160200191610514565b820191906000526020600020905b8154815290600101906020018083116104f757829003601f168201915b50505050509050600060078260405161052d91906116f1565b908152602001604051809103902060009054906101000a900473ffffffffffffffffffffffffffffffffffffffff1690508073ffffffffffffffffffffffffffffffffffffffff168373ffffffffffffffffffffffffffffffffffffffff16146105cc576040517f08c379a00000000000000000000000000000000000000000000000000000000081526004016105c390611aad565b60405180910390fd5b60006002866040516105de91906116f1565b908152602001604051809103902080546105f7906119e3565b80601f0160208091040260200160405190810160405280929190818152602001828054610623906119e3565b80156106705780601f1061064557610100808354040283529160200191610670565b820191906000526020600020905b81548152906001019060200180831161065357829003601f168201915b5050505050905060008151905060008a519050600082826106919190611b06565b905060006106a08d8386610fe3565b905084805190602001208180519060200120146106f2576040517f08c379a00000000000000000000000000000000000000000000000000000000081526004016106e990611bac565b60405180910390fd5b8a60048b60405161070391906116f1565b90815260200160405180910390209080519060200190610724929190611144565b508c60058b60405161073691906116f1565b90815260200160405180910390209080519060200190610757929190611144565b508b60068b60405161076991906116f1565b9081526020016040518091039020908051906020019061078a929190611144565b50600260098b60405161079d91906116f1565b908152602001604051809103902060006101000a81548160ff021916908360ff1602179055508960088e6040516107d491906116f1565b908152602001604051809103902090805190602001906107f5929190611144565b5050505050505050505050505050565b606080600060088460405161081a91906116f1565b90815260200160405180910390208054610833906119e3565b80601f016020809104026020016040519081016040528092919081815260200182805461085f906119e3565b80156108ac5780601f10610881576101008083540402835291602001916108ac565b820191906000526020600020905b81548152906001019060200180831161088f57829003601f168201915b505050505090506003816040516108c391906116f1565b908152602001604051809103902080546108dc906119e3565b80601f0160208091040260200160405190810160405280929190818152602001828054610908906119e3565b80156109555780601f1061092a57610100808354040283529160200191610955565b820191906000526020600020905b81548152906001019060200180831161093857829003601f168201915b5050505050925060048160405161096c91906116f1565b90815260200160405180910390208054610985906119e3565b80601f01602080910402602001604051908101604052809291908181526020018280546109b1906119e3565b80156109fe5780601f106109d3576101008083540402835291602001916109fe565b820191906000526020600020905b8154815290600101906020018083116109e157829003601f168201915b505050505091506040518060400160405280600281526020017f30780000000000000000000000000000000000000000000000000000000000008152508051906020012083805190602001201415610a8b576040517f08c379a0000000000000000000000000000000000000000000000000000000008152600401610a8290611c3e565b60405180910390fd5b6040518060400160405280600281526020017f30780000000000000000000000000000000000000000000000000000000000008152508051906020012082805190602001201415610b11576040517f08c379a0000000000000000000000000000000000000000000000000000000008152600401610b0890611cd0565b60405180910390fd5b50915091565b6000610b238383610f05565b905092915050565b6000600a60009054906101000a900473ffffffffffffffffffffffffffffffffffffffff16905090565b600080610b70836001808651610b6b9190611b06565b610fe3565b905060008180519060200120905080604051602001610b8f9190611d11565b6040516020818303038152906040529150610bb882600c808551610bb39190611b06565b610fe3565b9150601482015192505050919050565b600081805190602001209050600081604051602001610be79190611d11565b60405160208183030381529060405290506002600982604051610c0a91906116f1565b908152602001604051809103902060009054906101000a900460ff1660ff1614610c69576040517f08c379a0000000000000000000000000000000000000000000000000000000008152600401610c609061178b565b60405180910390fd5b6040518060400160405280600281526020017f307800000000000000000000000000000000000000000000000000000000000081525080519060200120600482604051610cb691906116f1565b9081526020016040518091039020604051610cd19190611dc0565b60405180910390201415610d1a576040517f08c379a0000000000000000000000000000000000000000000000000000000008152600401610d1190611e23565b60405180910390fd5b6000600682604051610d2c91906116f1565b90815260200160405180910390208054610d45906119e3565b80601f0160208091040260200160405190810160405280929190818152602001828054610d71906119e3565b8015610dbe5780601f10610d9357610100808354040283529160200191610dbe565b820191906000526020600020905b815481529060010190602001808311610da157829003601f168201915b50505050509050600081610dd1906117dd565b90506000610ddf8289610f05565b90506000610dec88610b55565b90508073ffffffffffffffffffffffffffffffffffffffff168273ffffffffffffffffffffffffffffffffffffffff1614610e5c576040517f08c379a0000000000000000000000000000000000000000000000000000000008152600401610e5390611edb565b60405180910390fd5b87600086604051610e6d91906116f1565b90815260200160405180910390209080519060200190610e8e929190611144565b5088600386604051610ea091906116f1565b90815260200160405180910390209080519060200190610ec1929190611144565b506003600986604051610ed491906116f1565b908152602001604051809103902060006101000a81548160ff021916908360ff160217905550505050505050505050565b600080600080610f1485611101565b80935081945082955050505060006040518060400160405280601c81526020017f19457468657265756d205369676e6564204d6573736167653a0a333200000000815250905060008188604051602001610f6f929190611efb565b60405160208183030381529060405280519060200120905060018186868660405160008152602001604052604051610faa9493929190611f4e565b6020604051602081039080840390855afa158015610fcc573d6000803e3d6000fd5b505050602060405103519550505050505092915050565b606081601f83610ff39190611f93565b1015611034576040517f08c379a000000000000000000000000000000000000000000000000000000000815260040161102b90612035565b60405180910390fd5b81836110409190611f93565b84511015611083576040517f08c379a000000000000000000000000000000000000000000000000000000000815260040161107a906120a1565b60405180910390fd5b60608215600081146110a457604051915060008252602082016040526110f5565b6040519150601f8416801560200281840101858101878315602002848b0101015b818310156110e257805183526020830192506020810190506110c5565b50868552601f19601f8301166040525050505b50809150509392505050565b6000806000604184511461111457600080fd5b60008060006020870151925060408701519150606087015160001a90508083839550955095505050509193909250565b828054611150906119e3565b90600052602060002090601f01602090048101928261117257600085556111b9565b82601f1061118b57805160ff19168380011785556111b9565b828001600101855582156111b9579182015b828111156111b857825182559160200191906001019061119d565b5b5090506111c691906111ca565b5090565b5b808211156111e35760008160009055506001016111cb565b5090565b6000604051905090565b600080fd5b600080fd5b600080fd5b600080fd5b6000601f19601f8301169050919050565b7f4e487b7100000000000000000000000000000000000000000000000000000000600052604160045260246000fd5b61124e82611205565b810181811067ffffffffffffffff8211171561126d5761126c611216565b5b80604052505050565b60006112806111e7565b905061128c8282611245565b919050565b600067ffffffffffffffff8211156112ac576112ab611216565b5b6112b582611205565b9050602081019050919050565b82818337600083830152505050565b60006112e46112df84611291565b611276565b905082815260208101848484011115611300576112ff611200565b5b61130b8482856112c2565b509392505050565b600082601f830112611328576113276111fb565b5b81356113388482602086016112d1565b91505092915050565b6000806000806080858703121561135b5761135a6111f1565b5b600085013567ffffffffffffffff811115611379576113786111f6565b5b61138587828801611313565b945050602085013567ffffffffffffffff8111156113a6576113a56111f6565b5b6113b287828801611313565b935050604085013567ffffffffffffffff8111156113d3576113d26111f6565b5b6113df87828801611313565b925050606085013567ffffffffffffffff811115611400576113ff6111f6565b5b61140c87828801611313565b91505092959194509250565b60006020828403121561142e5761142d6111f1565b5b600082013567ffffffffffffffff81111561144c5761144b6111f6565b5b61145884828501611313565b91505092915050565b600081519050919050565b600082825260208201905092915050565b60005b8381101561149b578082015181840152602081019050611480565b838111156114aa576000848401525b50505050565b60006114bb82611461565b6114c5818561146c565b93506114d581856020860161147d565b6114de81611205565b840191505092915050565b6000604082019050818103600083015261150381856114b0565b9050818103602083015261151781846114b0565b90509392505050565b6000819050919050565b61153381611520565b811461153e57600080fd5b50565b6000813590506115508161152a565b92915050565b6000806040838503121561156d5761156c6111f1565b5b600061157b85828601611541565b925050602083013567ffffffffffffffff81111561159c5761159b6111f6565b5b6115a885828601611313565b9150509250929050565b600073ffffffffffffffffffffffffffffffffffffffff82169050919050565b60006115dd826115b2565b9050919050565b6115ed816115d2565b82525050565b600060208201905061160860008301846115e4565b92915050565b600080600060608486031215611627576116266111f1565b5b600084013567ffffffffffffffff811115611645576116446111f6565b5b61165186828701611313565b935050602084013567ffffffffffffffff811115611672576116716111f6565b5b61167e86828701611313565b925050604084013567ffffffffffffffff81111561169f5761169e6111f6565b5b6116ab86828701611313565b9150509250925092565b600081905092915050565b60006116cb82611461565b6116d581856116b5565b93506116e581856020860161147d565b80840191505092915050565b60006116fd82846116c0565b915081905092915050565b600082825260208201905092915050565b7f504552562028707574496e74656e74293a20746865206e6f6e6365206861732060008201527f6265656e20657870697265640000000000000000000000000000000000000000602082015250565b6000611775602c83611708565b915061178082611719565b604082019050919050565b600060208201905081810360008301526117a481611768565b9050919050565b6000819050602082019050919050565b60006117c78251611520565b80915050919050565b600082821b905092915050565b60006117e882611461565b826117f2846117ab565b90506117fd816117bb565b9250602082101561183d576118387fffffffffffffffffffffffffffffffffffffffffffffffffffffffffffffffff836020036008026117d0565b831692505b5050919050565b7f504552562028637265617465517565293a206e6f74206d61746368206265747760008201527f65656e20746865207369676e657220616e642074686520706c6174666f726d6560208201527f7200000000000000000000000000000000000000000000000000000000000000604082015250565b60006118c6604183611708565b91506118d182611844565b606082019050919050565b600060208201905081810360008301526118f5816118b9565b9050919050565b7f504552562028707574496e74656e74293a206e6f74206d61746368206265747760008201527f65656e20746865206861736865645f6461746175726c20746f2064617461757260208201527f6c00000000000000000000000000000000000000000000000000000000000000604082015250565b600061197e604183611708565b9150611989826118fc565b606082019050919050565b600060208201905081810360008301526119ad81611971565b9050919050565b7f4e487b7100000000000000000000000000000000000000000000000000000000600052602260045260246000fd5b600060028204905060018216806119fb57607f821691505b60208210811415611a0f57611a0e6119b4565b5b50919050565b7f504552562028707574496e74656e74293a206e6f74206d61746368206265747760008201527f65656e20746865207369676e657220616e642074686520706c6174666f726d6560208201527f7200000000000000000000000000000000000000000000000000000000000000604082015250565b6000611a97604183611708565b9150611aa282611a15565b606082019050919050565b60006020820190508181036000830152611ac681611a8a565b9050919050565b6000819050919050565b7f4e487b7100000000000000000000000000000000000000000000000000000000600052601160045260246000fd5b6000611b1182611acd565b9150611b1c83611acd565b925082821015611b2f57611b2e611ad7565b5b828203905092915050565b7f504552562028707574496e74656e74293a206e6f74206d61746368207468652060008201527f6461746120686173680000000000000000000000000000000000000000000000602082015250565b6000611b96602983611708565b9150611ba182611b3a565b604082019050919050565b60006020820190508181036000830152611bc581611b89565b9050919050565b7f5045525620286765745369676e617475726573293a206e6f7420666f756e642060008201527f415f736967000000000000000000000000000000000000000000000000000000602082015250565b6000611c28602583611708565b9150611c3382611bcc565b604082019050919050565b60006020820190508181036000830152611c5781611c1b565b9050919050565b7f5045525620286765745369676e617475726573293a206e6f7420666f756e642060008201527f425f736967000000000000000000000000000000000000000000000000000000602082015250565b6000611cba602583611708565b9150611cc582611c5e565b604082019050919050565b60006020820190508181036000830152611ce981611cad565b9050919050565b6000819050919050565b611d0b611d0682611520565b611cf0565b82525050565b6000611d1d8284611cfa565b60208201915081905092915050565b60008190508160005260206000209050919050565b60008154611d4e816119e3565b611d5881866116b5565b94506001821660008114611d735760018114611d8457611db7565b60ff19831686528186019350611db7565b611d8d85611d2c565b60005b83811015611daf57815481890152600182019150602081019050611d90565b838801955050505b50505092915050565b6000611dcc8284611d41565b915081905092915050565b7f504552563a206e6f74206d617463680000000000000000000000000000000000600082015250565b6000611e0d600f83611708565b9150611e1882611dd7565b602082019050919050565b60006020820190508181036000830152611e3c81611e00565b9050919050565b7f50455256202870757446696e61696c697479293a206e6f74206d61746368206260008201527f65747765656e20746865207369676e657220616e64207468652070726f76696460208201527f6572000000000000000000000000000000000000000000000000000000000000604082015250565b6000611ec5604283611708565b9150611ed082611e43565b606082019050919050565b60006020820190508181036000830152611ef481611eb8565b9050919050565b6000611f0782856116c0565b9150611f138284611cfa565b6020820191508190509392505050565b611f2c81611520565b82525050565b600060ff82169050919050565b611f4881611f32565b82525050565b6000608082019050611f636000830187611f23565b611f706020830186611f3f565b611f7d6040830185611f23565b611f8a6060830184611f23565b95945050505050565b6000611f9e82611acd565b9150611fa983611acd565b9250827fffffffffffffffffffffffffffffffffffffffffffffffffffffffffffffffff03821115611fde57611fdd611ad7565b5b828201905092915050565b7f736c6963655f6f766572666c6f77000000000000000000000000000000000000600082015250565b600061201f600e83611708565b915061202a82611fe9565b602082019050919050565b6000602082019050818103600083015261204e81612012565b9050919050565b7f736c6963655f6f75744f66426f756e6473000000000000000000000000000000600082015250565b600061208b601183611708565b915061209682612055565b602082019050919050565b600060208201905081810360008301526120ba8161207e565b905091905056fea26469706673582212204f81a8768a6a5b292b79e9e7976c59bf626d529f87a5e9f95dea967ffe2179b564736f6c63430008090033",
  "linkReferences": {},
  "deployedLinkReferences": {}
}