{
  "_format": "hh-sol-artifact-1",
  "contractName": "PERV",
  "sourceName": "contracts/PERV.sol",
  "abi": [
    {
      "inputs": [],
      "stateMutability": "nonpayable",
      "type": "constructor"
    },
    {
      "inputs": [
        {
          "internalType": "bytes",
          "name": "key",
          "type": "bytes"
        }
      ],
      "name": "_calculateAddressFromPubKey",
      "outputs": [
        {
          "internalType": "address",
          "name": "addr",
          "type": "address"
        }
      ],
      "stateMutability": "pure",
      "type": "function"
    },
    {
      "inputs": [
        {
          "internalType": "bytes",
          "name": "hashed_A_nonce",
          "type": "bytes"
        },
        {
          "internalType": "bytes",
          "name": "B_signed_hashed_A_nonce",
          "type": "bytes"
        },
        {
          "internalType": "bytes",
          "name": "B_pubkey",
          "type": "bytes"
        },
        {
          "internalType": "bytes",
          "name": "hashed_data",
          "type": "bytes"
        }
      ],
      "name": "createQue",
      "outputs": [],
      "stateMutability": "nonpayable",
      "type": "function"
    },
    {
      "inputs": [
        {
          "internalType": "bytes",
          "name": "data",
          "type": "bytes"
        }
      ],
      "name": "hashdayo",
      "outputs": [
        {
          "internalType": "bytes32",
          "name": "",
          "type": "bytes32"
        }
      ],
      "stateMutability": "pure",
      "type": "function"
    },
    {
      "inputs": [],
      "name": "owner",
      "outputs": [
        {
          "internalType": "address",
          "name": "",
          "type": "address"
        }
      ],
      "stateMutability": "view",
      "type": "function"
    },
    {
      "inputs": [
        {
          "internalType": "bytes",
          "name": "A_signed_dataurl",
          "type": "bytes"
        },
        {
          "internalType": "bytes",
          "name": "A_pubkey",
          "type": "bytes"
        },
        {
          "internalType": "bytes",
          "name": "A_nonce",
          "type": "bytes"
        }
      ],
      "name": "putFinaility",
      "outputs": [],
      "stateMutability": "nonpayable",
      "type": "function"
    },
    {
      "inputs": [
        {
          "internalType": "bytes",
          "name": "dataurl",
          "type": "bytes"
        },
        {
          "internalType": "bytes",
          "name": "hashed_dataurl",
          "type": "bytes"
        },
        {
          "internalType": "bytes",
          "name": "B_signed_dataurl",
          "type": "bytes"
        },
        {
          "internalType": "bytes",
          "name": "hashed_A_nonce",
          "type": "bytes"
        }
      ],
      "name": "putIntent",
      "outputs": [],
      "stateMutability": "nonpayable",
      "type": "function"
    },
    {
      "inputs": [
        {
          "internalType": "bytes32",
          "name": "hash",
          "type": "bytes32"
        },
        {
          "internalType": "bytes",
          "name": "sig",
          "type": "bytes"
        }
      ],
      "name": "signdayo",
      "outputs": [
        {
          "internalType": "address",
          "name": "",
          "type": "address"
        }
      ],
      "stateMutability": "pure",
      "type": "function"
    }
  ],
  "bytecode": "0x608060405234801561001057600080fd5b5033600960006101000a81548173ffffffffffffffffffffffffffffffffffffffff021916908373ffffffffffffffffffffffffffffffffffffffff1602179055506119de806100616000396000f3fe608060405234801561001057600080fd5b506004361061007d5760003560e01c8063675998881161005b57806367599888146100ea5780638da5cb5b1461011a578063b0d9e27114610138578063b5d1daa0146101685761007d565b806313b9b849146100825780631e650b86146100b25780635f8e15ee146100ce575b600080fd5b61009c60048036038101906100979190610e7a565b610184565b6040516100a99190610f17565b60405180910390f35b6100cc60048036038101906100c79190610f32565b610198565b005b6100e860048036038101906100e39190610f32565b6102fb565b005b61010460048036038101906100ff9190611009565b6106c6565b6040516101119190611061565b60405180910390f35b6101226106d7565b60405161012f9190610f17565b60405180910390f35b610152600480360381019061014d9190611009565b610701565b60405161015f9190610f17565b60405180910390f35b610182600480360381019061017d919061107c565b610774565b005b60006101908383610a08565b905092915050565b6000846101a490611160565b905060006101b28286610a08565b905060006101bf85610701565b90508073ffffffffffffffffffffffffffffffffffffffff168273ffffffffffffffffffffffffffffffffffffffff161461022f576040517f08c379a000000000000000000000000000000000000000000000000000000000815260040161022690611270565b60405180910390fd5b8460018860405161024091906112ff565b90815260200160405180910390209080519060200190610261929190610c47565b508060078660405161027391906112ff565b908152602001604051809103902060006101000a81548173ffffffffffffffffffffffffffffffffffffffff021916908373ffffffffffffffffffffffffffffffffffffffff160217905550836002886040516102d091906112ff565b908152602001604051809103902090805190602001906102f1929190610c47565b5050505050505050565b83805190602001208361030d90611160565b1461034d576040517f08c379a0000000000000000000000000000000000000000000000000000000008152600401610344906113ae565b60405180910390fd5b60008361035990611160565b905060006103678285610a08565b9050600060018460405161037b91906112ff565b90815260200160405180910390208054610394906113fd565b80601f01602080910402602001604051908101604052809291908181526020018280546103c0906113fd565b801561040d5780601f106103e25761010080835404028352916020019161040d565b820191906000526020600020905b8154815290600101906020018083116103f057829003601f168201915b50505050509050600060078260405161042691906112ff565b908152602001604051809103902060009054906101000a900473ffffffffffffffffffffffffffffffffffffffff1690508073ffffffffffffffffffffffffffffffffffffffff168373ffffffffffffffffffffffffffffffffffffffff16146104c5576040517f08c379a00000000000000000000000000000000000000000000000000000000081526004016104bc906114c7565b60405180910390fd5b60006002866040516104d791906112ff565b908152602001604051809103902080546104f0906113fd565b80601f016020809104026020016040519081016040528092919081815260200182805461051c906113fd565b80156105695780601f1061053e57610100808354040283529160200191610569565b820191906000526020600020905b81548152906001019060200180831161054c57829003601f168201915b5050505050905060008151905060008a5190506000828261058a9190611520565b905060006105998d8386610ae6565b905084805190602001208180519060200120146105eb576040517f08c379a00000000000000000000000000000000000000000000000000000000081526004016105e2906115c6565b60405180910390fd5b8a60048b6040516105fc91906112ff565b9081526020016040518091039020908051906020019061061d929190610c47565b508c60058b60405161062f91906112ff565b90815260200160405180910390209080519060200190610650929190610c47565b508b60068b60405161066291906112ff565b90815260200160405180910390209080519060200190610683929190610c47565b508960088d60405161069591906112ff565b908152602001604051809103902090805190602001906106b6929190610c47565b5050505050505050505050505050565b600081805190602001209050919050565b6000600960009054906101000a900473ffffffffffffffffffffffffffffffffffffffff16905090565b60008061071c8360018086516107179190611520565b610ae6565b90506000818051906020012090508060405160200161073b9190611607565b604051602081830303815290604052915061076482600c80855161075f9190611520565b610ae6565b9150601482015192505050919050565b6000818051906020012090506000816040516020016107939190611607565b60405160208183030381529060405290506040518060400160405280600281526020017f3078000000000000000000000000000000000000000000000000000000000000815250805190602001206004826040516107f191906112ff565b908152602001604051809103902060405161080c91906116b6565b60405180910390201415610855576040517f08c379a000000000000000000000000000000000000000000000000000000000815260040161084c90611719565b60405180910390fd5b600060068260405161086791906112ff565b90815260200160405180910390208054610880906113fd565b80601f01602080910402602001604051908101604052809291908181526020018280546108ac906113fd565b80156108f95780601f106108ce576101008083540402835291602001916108f9565b820191906000526020600020905b8154815290600101906020018083116108dc57829003601f168201915b5050505050905060008161090c90611160565b9050600061091a8289610a08565b9050600061092788610701565b90508073ffffffffffffffffffffffffffffffffffffffff168273ffffffffffffffffffffffffffffffffffffffff1614610997576040517f08c379a000000000000000000000000000000000000000000000000000000000815260040161098e906117d1565b60405180910390fd5b876000866040516109a891906112ff565b908152602001604051809103902090805190602001906109c9929190610c47565b50886003866040516109db91906112ff565b908152602001604051809103902090805190602001906109fc929190610c47565b50505050505050505050565b600080600080610a1785610c04565b80935081945082955050505060006040518060400160405280601c81526020017f19457468657265756d205369676e6564204d6573736167653a0a333200000000815250905060008188604051602001610a729291906117f1565b60405160208183030381529060405280519060200120905060018186868660405160008152602001604052604051610aad9493929190611835565b6020604051602081039080840390855afa158015610acf573d6000803e3d6000fd5b505050602060405103519550505050505092915050565b606081601f83610af6919061187a565b1015610b37576040517f08c379a0000000000000000000000000000000000000000000000000000000008152600401610b2e9061191c565b60405180910390fd5b8183610b43919061187a565b84511015610b86576040517f08c379a0000000000000000000000000000000000000000000000000000000008152600401610b7d90611988565b60405180910390fd5b6060821560008114610ba75760405191506000825260208201604052610bf8565b6040519150601f8416801560200281840101858101878315602002848b0101015b81831015610be55780518352602083019250602081019050610bc8565b50868552601f19601f8301166040525050505b50809150509392505050565b60008060006041845114610c1757600080fd5b60008060006020870151925060408701519150606087015160001a90508083839550955095505050509193909250565b828054610c53906113fd565b90600052602060002090601f016020900481019282610c755760008555610cbc565b82601f10610c8e57805160ff1916838001178555610cbc565b82800160010185558215610cbc579182015b82811115610cbb578251825591602001919060010190610ca0565b5b509050610cc99190610ccd565b5090565b5b80821115610ce6576000816000905550600101610cce565b5090565b6000604051905090565b600080fd5b600080fd5b6000819050919050565b610d1181610cfe565b8114610d1c57600080fd5b50565b600081359050610d2e81610d08565b92915050565b600080fd5b600080fd5b6000601f19601f8301169050919050565b7f4e487b7100000000000000000000000000000000000000000000000000000000600052604160045260246000fd5b610d8782610d3e565b810181811067ffffffffffffffff82111715610da657610da5610d4f565b5b80604052505050565b6000610db9610cea565b9050610dc58282610d7e565b919050565b600067ffffffffffffffff821115610de557610de4610d4f565b5b610dee82610d3e565b9050602081019050919050565b82818337600083830152505050565b6000610e1d610e1884610dca565b610daf565b905082815260208101848484011115610e3957610e38610d39565b5b610e44848285610dfb565b509392505050565b600082601f830112610e6157610e60610d34565b5b8135610e71848260208601610e0a565b91505092915050565b60008060408385031215610e9157610e90610cf4565b5b6000610e9f85828601610d1f565b925050602083013567ffffffffffffffff811115610ec057610ebf610cf9565b5b610ecc85828601610e4c565b9150509250929050565b600073ffffffffffffffffffffffffffffffffffffffff82169050919050565b6000610f0182610ed6565b9050919050565b610f1181610ef6565b82525050565b6000602082019050610f2c6000830184610f08565b92915050565b60008060008060808587031215610f4c57610f4b610cf4565b5b600085013567ffffffffffffffff811115610f6a57610f69610cf9565b5b610f7687828801610e4c565b945050602085013567ffffffffffffffff811115610f9757610f96610cf9565b5b610fa387828801610e4c565b935050604085013567ffffffffffffffff811115610fc457610fc3610cf9565b5b610fd087828801610e4c565b925050606085013567ffffffffffffffff811115610ff157610ff0610cf9565b5b610ffd87828801610e4c565b91505092959194509250565b60006020828403121561101f5761101e610cf4565b5b600082013567ffffffffffffffff81111561103d5761103c610cf9565b5b61104984828501610e4c565b91505092915050565b61105b81610cfe565b82525050565b60006020820190506110766000830184611052565b92915050565b60008060006060848603121561109557611094610cf4565b5b600084013567ffffffffffffffff8111156110b3576110b2610cf9565b5b6110bf86828701610e4c565b935050602084013567ffffffffffffffff8111156110e0576110df610cf9565b5b6110ec86828701610e4c565b925050604084013567ffffffffffffffff81111561110d5761110c610cf9565b5b61111986828701610e4c565b9150509250925092565b600081519050919050565b6000819050602082019050919050565b600061114a8251610cfe565b80915050919050565b600082821b905092915050565b600061116b82611123565b826111758461112e565b90506111808161113e565b925060208210156111c0576111bb7fffffffffffffffffffffffffffffffffffffffffffffffffffffffffffffffff83602003600802611153565b831692505b5050919050565b600082825260208201905092915050565b7f504552562028637265617465517565293a206e6f74206d61746368206265747760008201527f65656e20746865207369676e657220616e642074686520706c6174666f726d6560208201527f7200000000000000000000000000000000000000000000000000000000000000604082015250565b600061125a6041836111c7565b9150611265826111d8565b606082019050919050565b600060208201905081810360008301526112898161124d565b9050919050565b600081905092915050565b60005b838110156112b957808201518184015260208101905061129e565b838111156112c8576000848401525b50505050565b60006112d982611123565b6112e38185611290565b93506112f381856020860161129b565b80840191505092915050565b600061130b82846112ce565b915081905092915050565b7f504552562028707574496e74656e74293a206e6f74206d61746368206265747760008201527f65656e20746865206861736865645f6461746175726c20746f2064617461757260208201527f6c00000000000000000000000000000000000000000000000000000000000000604082015250565b60006113986041836111c7565b91506113a382611316565b606082019050919050565b600060208201905081810360008301526113c78161138b565b9050919050565b7f4e487b7100000000000000000000000000000000000000000000000000000000600052602260045260246000fd5b6000600282049050600182168061141557607f821691505b60208210811415611429576114286113ce565b5b50919050565b7f504552562028707574496e74656e74293a206e6f74206d61746368206265747760008201527f65656e20746865207369676e657220616e642074686520706c6174666f726d6560208201527f7200000000000000000000000000000000000000000000000000000000000000604082015250565b60006114b16041836111c7565b91506114bc8261142f565b606082019050919050565b600060208201905081810360008301526114e0816114a4565b9050919050565b6000819050919050565b7f4e487b7100000000000000000000000000000000000000000000000000000000600052601160045260246000fd5b600061152b826114e7565b9150611536836114e7565b925082821015611549576115486114f1565b5b828203905092915050565b7f504552562028707574496e74656e74293a206e6f74206d61746368207468652060008201527f6461746120686173680000000000000000000000000000000000000000000000602082015250565b60006115b06029836111c7565b91506115bb82611554565b604082019050919050565b600060208201905081810360008301526115df816115a3565b9050919050565b6000819050919050565b6116016115fc82610cfe565b6115e6565b82525050565b600061161382846115f0565b60208201915081905092915050565b60008190508160005260206000209050919050565b60008154611644816113fd565b61164e8186611290565b94506001821660008114611669576001811461167a576116ad565b60ff198316865281860193506116ad565b61168385611622565b60005b838110156116a557815481890152600182019150602081019050611686565b838801955050505b50505092915050565b60006116c28284611637565b915081905092915050565b7f504552563a206e6f74206d617463680000000000000000000000000000000000600082015250565b6000611703600f836111c7565b915061170e826116cd565b602082019050919050565b60006020820190508181036000830152611732816116f6565b9050919050565b7f50455256202870757446696e61696c697479293a206e6f74206d61746368206260008201527f65747765656e20746865207369676e657220616e64207468652070726f76696460208201527f6572000000000000000000000000000000000000000000000000000000000000604082015250565b60006117bb6042836111c7565b91506117c682611739565b606082019050919050565b600060208201905081810360008301526117ea816117ae565b9050919050565b60006117fd82856112ce565b915061180982846115f0565b6020820191508190509392505050565b600060ff82169050919050565b61182f81611819565b82525050565b600060808201905061184a6000830187611052565b6118576020830186611826565b6118646040830185611052565b6118716060830184611052565b95945050505050565b6000611885826114e7565b9150611890836114e7565b9250827fffffffffffffffffffffffffffffffffffffffffffffffffffffffffffffffff038211156118c5576118c46114f1565b5b828201905092915050565b7f736c6963655f6f766572666c6f77000000000000000000000000000000000000600082015250565b6000611906600e836111c7565b9150611911826118d0565b602082019050919050565b60006020820190508181036000830152611935816118f9565b9050919050565b7f736c6963655f6f75744f66426f756e6473000000000000000000000000000000600082015250565b60006119726011836111c7565b915061197d8261193c565b602082019050919050565b600060208201905081810360008301526119a181611965565b905091905056fea264697066735822122082e5d5cb423bc4f94e62ae2250b8ecfe0fe232a151a7d3f71fbe8981e6a6f59964736f6c63430008090033",
  "linkReferences": {},
  "deployedLinkReferences": {}
}